{
    "_format": "hh-sol-artifact-1",
    "contractName": "CarInsuranceTracker",
    "sourceName": "contracts/Lock.sol",
    "abi": [
        {
            "inputs": [],
            "stateMutability": "nonpayable",
            "type": "constructor"
        },
        {
            "anonymous": false,
            "inputs": [
                {
                    "indexed": false,
                    "internalType": "uint256",
                    "name": "newDate",
                    "type": "uint256"
                }
            ],
            "name": "ExpirationDateUpdated",
            "type": "event"
        },
        {
            "inputs": [],
            "name": "expirationDate",
            "outputs": [
                {
                    "internalType": "uint256",
                    "name": "",
                    "type": "uint256"
                }
            ],
            "stateMutability": "view",
            "type": "function"
        },
        {
            "inputs": [],
            "name": "getExpirationDate",
            "outputs": [
                {
                    "internalType": "uint256",
                    "name": "",
                    "type": "uint256"
                }
            ],
            "stateMutability": "view",
            "type": "function"
        },
        {
            "inputs": [],
            "name": "isInsuranceExpired",
            "outputs": [
                {
                    "internalType": "bool",
                    "name": "",
                    "type": "bool"
                }
            ],
            "stateMutability": "view",
            "type": "function"
        },
        {
            "inputs": [],
            "name": "owner",
            "outputs": [
                {
                    "internalType": "address",
                    "name": "",
                    "type": "address"
                }
            ],
            "stateMutability": "view",
            "type": "function"
        },
        {
            "inputs": [
                {
                    "internalType": "uint256",
                    "name": "_newDate",
                    "type": "uint256"
                }
            ],
            "name": "setExpirationDate",
            "outputs": [],
            "stateMutability": "nonpayable",
            "type": "function"
        }
    ],
    "bytecode": "0x608060405234801561001057600080fd5b50336000806101000a81548173ffffffffffffffffffffffffffffffffffffffff021916908373ffffffffffffffffffffffffffffffffffffffff1602179055506104d0806100606000396000f3fe608060405234801561001057600080fd5b50600436106100575760003560e01c8063487201261461005c578063545bfeb81461007a5780635edf7d8b146100965780638da5cb5b146100b45780638f620487146100d2575b600080fd5b6100646100f0565b604051610071919061025c565b60405180910390f35b610094600480360381019061008f91906102b2565b6100fc565b005b61009e61020d565b6040516100ab91906102ee565b60405180910390f35b6100bc610217565b6040516100c9919061034a565b60405180910390f35b6100da61023b565b6040516100e791906102ee565b60405180910390f35b60006001544211905090565b60008054906101000a900473ffffffffffffffffffffffffffffffffffffffff1673ffffffffffffffffffffffffffffffffffffffff163373ffffffffffffffffffffffffffffffffffffffff161461018a576040517f08c379a0000000000000000000000000000000000000000000000000000000008152600401610181906103e8565b60405180910390fd5b4281116101cc576040517f08c379a00000000000000000000000000000000000000000000000000000000081526004016101c39061047a565b60405180910390fd5b806001819055507f93bce6e9a227c4e27d46fd1932fbd92693f0d79a99ed77a6d5c8742b0af5cbed8160405161020291906102ee565b60405180910390a150565b6000600154905090565b60008054906101000a900473ffffffffffffffffffffffffffffffffffffffff1681565b60015481565b60008115159050919050565b61025681610241565b82525050565b6000602082019050610271600083018461024d565b92915050565b600080fd5b6000819050919050565b61028f8161027c565b811461029a57600080fd5b50565b6000813590506102ac81610286565b92915050565b6000602082840312156102c8576102c7610277565b5b60006102d68482850161029d565b91505092915050565b6102e88161027c565b82525050565b600060208201905061030360008301846102df565b92915050565b600073ffffffffffffffffffffffffffffffffffffffff82169050919050565b600061033482610309565b9050919050565b61034481610329565b82525050565b600060208201905061035f600083018461033b565b92915050565b600082825260208201905092915050565b7f4f6e6c7920746865206f776e65722063616e2063616c6c20746869732066756e60008201527f6374696f6e000000000000000000000000000000000000000000000000000000602082015250565b60006103d2602583610365565b91506103dd82610376565b604082019050919050565b60006020820190508181036000830152610401816103c5565b9050919050565b7f45787069726174696f6e2064617465206d75737420626520696e20746865206660008201527f7574757265000000000000000000000000000000000000000000000000000000602082015250565b6000610464602583610365565b915061046f82610408565b604082019050919050565b6000602082019050818103600083015261049381610457565b905091905056fea26469706673582212205692d804e2be39169c8f855c2847b9a2436b992862b889d2f318ea92f1630d6b64736f6c63430008180033",
    "linkReferences": {},
    "deployedLinkReferences": {}
}